S02B000053414D5637315F54656E736F72466C6F775F4C6974655F4D6963726F5F48656C6C6F5F576F726C64C3
S214400000602C4020E5014000E1014000E101400055
S214400010E1014000E1014000E10140000000000035
S214400020000000000000000000000000E101400069
S214400030E101400000000000E1014000E101400015
S214400040E1014000E1014000E1014000E1014000E3
S214400050E1014000E1014000E1014000E1014000D3
S214400060E101400000000000E1014000E1014000E5
S214400070E1014000E1014000E1014000E1014000B3
S214400080E1014000E1014000E1014000E1014000A3
S214400090E1014000E1014000E1014000E101400093
S2144000A0E1014000E1014000E1014000E101400083
S2144000B0E1014000E1014000E1014000E101400073
S2144000C0E1014000E1014000E1014000E101400063
S2144000D0E1014000E1014000E1014000E101400053
S2144000E0E1014000E1014000E1014000E101400043
S2144000F0E1014000E1014000E1014000E101400033
S214400100E1014000E1014000E1014000E101400022
S214400110E1014000E1014000000000000000000056
S214400120E1014000E1014000E1014000E101400002
S214400130E1014000E1014000E1014000E1014000F2
S214400140E1014000E1014000E1014000E1014000E2
S214400150E1014000E1014000E1014000E1014000D2
S214400160E1014000E101400010B5054C237833B969
S214400170044B13B10448AFF300800123237010BD35
S214400180F809402000000000408946000C4B43B16F
S2144001900C480D4910B5AFF300800C48036823B9EE
S2144001A010BD0A48036833B97047094B002BF7D097
S2144001B0BDE810401847064B002BF5D0184700BF47
S2144001C00000000040894600FC0940204089460067
S2144001D00000000008B5014B984708BD5D0240008E
S2144001E0FEE7000008B5104B104A9A4209D00E4B65
S2144001F00E4A03E011681960043304320C498B42FE
S214400200F8D30C4B02E000221A6004330A4A9342A9
S214400210F9D30A4A0A4B23F07F039360094B984769
S214400220094B9847FEE700BF000040204089460043
S214400230F8094020F80940206026402000ED00E004
S214400240000040001D6B450085044000014A024BFB
S2144002501A607047001BB7000400402008B5044BE6
S2144002609847044A536843F40043536008BD00BFB0
S214400270ED02400050180E40EFF31083036072B654
S214400280BFF35F8F7047BFF35F8F036883F31088B9
S214400290704700000346064A126822B1044A1068B6
S2144002A00344136070470349014A1160F6E700BFF4
S2144002B0140A4020602C40204FF0FF3070474FF427
S2144002C000534B6000207047012070470020704765
S2144002D008B501460148024B9847FEE740E1450015
S2144002E0F175450070474FF0FF30704700B583B05A
S2144002F001A80E4B98470E4AD2F8883043F4700354
S214400300C2F88830BFF34F8FBFF36F8F01A8094BF9
S2144003109847094A136823F4706343F4C063136034
S214400320064B984703B05DF804FB00BF79024000D7
S21440033000ED00E087024000000C0E40FD03400048
S214400340144A154B1A60144B5B6913F0800FFAD0B1
S214400350124B9B6E13F0800FF5D010490A6A22F0BC
S21440036002020F4B13430B620C4B9B6E13F0010FB4
S214400370FAD00A4B196A0B4A0A431A62996A0A4A21
S2144003800A409A62094A9A62044B9B6E13F0020F27
S214400390FAD07047080000A510180E4000060E4020
S2144003A0013E370000003701FFFF00F8013F1820EC
S2144003B0114A136B23F0700313630F4B9B6E13F0BD
S2144003C0080FFAD00C4A136B23F4407343F480733F
S2144003D01363094B9B6E13F0080FFAD0064A136B53
S2144003E023F0030343F002031363034B9B6E13F0A7
S2144003F0080FFAD0704700BF00060E4008B5024B03
S2144004009847024B984708BD41034000B10340005F
S2144004107047704710B504460421024B9847204663
S21440042010BD00BF51A044007047000008B50068EA
S214400430014B984708BD00BF2904400070470000A4
S21440044008B50068014B984708BD00BF3D04400012
S2144004507047000008B50088014B984708BD00BFAC
S2144004605104400010B504460068024B98472044AB
S21440047010BD00BF2904400008B5014B984708BD91
S214400480650440002DE9F04387B07D4B98477D4B8F
S21440049098477D4B98477D4B1B78BFF35B8F13F097
S2144004A0010F22D0794D7A4B6B607A487A4B984749
S2144004B00446A860794B9847251A2846784B9847B3
S2144004C0042820DD281D764B9847F0B12044754B14
S2144004D098470246032A1AD0032373496C48734C44
S2144004E0A047002007B0BDE8F0836848704B9847A7
S2144004F00028D7D065486F4B98476F4A6F49644885
S2144005006F4B9847CEE70020DFE70022E2E75F4BDD
S2144005101B7BBFF35B8F13F0010F68D0694B93F8DA
S214400520A831BFF35B8F13F0010F75D0654B03F610
S2144005307C10C3F8100A644B9847002840F08E8021
S214400540604C0021D4F8100A604B9847C4F8140A4F
S2144005500021D4F8100A5E4B9847C4F8180A0023C6
S214400560C4F81C3A574C5B4ED4F81C0AB0470546B4
S214400570594B1F683846B047DFF89C8101462846ED
S214400580C0475649564B98478146D4F8145AE968AE
S214400590C04780462869B0474146524B9847524B21
S2144005A098476B681870D4F8100A504B9847002844
S2144005B05AD1444CD4F8183A5A6892F900001A694D
S2144005C0DD68801A434B98472946454B9847049028
S2144005D04846474B98470590D4F81C3A0133C4F830
S2144005E01C3A9F42BEDC0022C4F81C2ABAE74148A7
S2144005F02F4B9847002891D0244D05F110042046F3
S2144006003D4B984705F10C002A4B98472A4A3B49F0
S21440061020462B4B984781E73948254B984700287A
S21440062084D0284C194904F67C15002302934B6865
S21440063001934FF4FA63009304F5D67301F1100268
S214400640896828462F4EB04704F5D470194B984712
S214400650194A2D4928461A4B984767E72B490B4BB2
S2144006605868124B98473CE7084B5C684846284B0E
S214400670984702460B46274920460C4CA04730E791
S2144006804D024000D5014000AD9F4400180A40206E
S2144006900800402008F4450079044000410440002A
S2144006A0550440002D0440005CE145003107400001
S2144006B059A0440091A0440000004020110440008E
S2144006C041A04400101B4020019344006D8D44001F
S2144006D09D8C4400C94D4500FCF34500DB0FC940E6
S2144006E0714E4500614C450029524500D199440061
S2144006F00D274500240A40200941400013044000CD
S214400700B81C40202D8C44003D8E4400A4E145009A
S21440071089454500C0E14500D94F450010B504461F
S21440072041F29021014B9847204610BD51A044000D
S2144007300EB400B582B003AA52F8041B01920368B7
S2144007409B68984702B05DF804EB03B070470CB462
S21440075000B583B004AA52F8041B019203689B6854
S214400760984703B05DF804EB02B0704701380428A0
S21440077004D8DFE800F00D0507090B00002070479D
S21440078002207047032070470420704705207047BA
S2144007900120704718B1012803D00020704701207F
S2144007A0704702207047000008B518B121B12AB141
S2144007B033B108BD034B9847024B9847014B9847C7
S2144007C0004B98477965450008B50F2849D8DFE8BB
S2144007D000F00C081820283034143824103C2C40E4
S2144007E0441C0A230B70002008BD01230B70002018
S2144007F008BD0B230B70002008BD07230B7000209C
S21440080008BD02230B70002008BD10230B7000208B
S21440081008BD03230B70002008BD09230B70002081
S21440082008BD04230B70002008BD0D230B7000206C
S21440083008BD05230B70002008BD06230B70002062
S21440084008BD08230B70002008BD0C230B70002049
S21440085008BD0E230B70002008BD0F230B70002030
S21440086008BD134602460020087003491846034B4D
S2144008709847012008BD00BFBCE245003107400054
S21440088000207047002070470020704700207047C7
S21440089000207047002070470020704700207047B7
S2144008A000207047002070470020704700207047A7
S2144008B00020704700207047002070470020704797
S2144008C00020704700207047002070470020704787
S2144008D00020704700207047002070470020704777
S2144008E00020704700207047002070470020704767
S2144008F00020704700207047002070470020704757
S2144009000020704700207047002070470020704746
S2144009100020704700207047002070470020704736
S2144009202DE9F0419846D1B1044617460D46086871
S214400930184B98470646B0EB940F18D80024B4429C
S21440094024D22868134B9847844218D22B1D53F85C
S2144009502400114B984747F824000134EFE7069AE5
S2144009600E4918460E4B98470120BDE8F081069A7E
S2144009700C4940460A4B98470120BDE8F0810A4B97
S2144009800A4A4FF483710A480A4CA0470020BDE843
S214400990F08100BF290440003D044000E0E24500ED
S2144009A03107400010E3450054E34500ECE14500C4
S2144009B060E34500896545007047000008B500784B
S2144009C0014B984708BD00BFB90940002DE9F041EA
S2144009D084B00446884617461E46394DA8473B68AD
S2144009E01B680422114638469847054608B100233E
S2144009F0036002970395002D47D02046314B984719
S214400A00271A3846304B98470A284BDD07F10A002C
S214400A102D4B9847002847D020442C4B98474F28CA
S214400A2048D12046274B9847271A3846264B9847A2
S214400A300C283BDD07F10C00234B98470444002864
S214400A4036D02046224B984704448CB12746204651
S214400A501C4B9847241A20461B4B984704282BDDEE
S214400A60201D194B984748B33844164B9847286082
S214400A70002403943560039919B1029803685B68B3
S214400A809847204604B0BDE8F081124B019340F2EF
S214400A909D730093104B114A41464046104CA04768
S214400AA00124E8E70020B5E70020B8E70020C5E7C6
S214400AB00024CAE70024C8E70020D4E70020D6E791
S214400AC0A90740004104400055044000BD094000CD
S214400AD02D044000F0E34500A0E34500D8E3450080
S214400AE04F0740002DE9F04184B00446884617463B
S214400AF01E46394DA8473B681B68042211463846B7
S214400B009847054608B10023036002970395002DD9
S214400B1047D02046314B9847271A3846304B98479F
S214400B200A284BDD07F10A002D4B9847002847D08E
S214400B3020442C4B98475E2848D12046274B984760
S214400B40271A3846264B98470C283BDD07F10C0001
S214400B50234B98470444002836D02046224B9847DB
S214400B6004448CB1274620461C4B9847241A2046FE
S214400B701B4B984704282BDD201D194B984748B33C
S214400B803844164B984728600024039435600399F0
S214400B9019B1029803685B689847204604B0BDE8E0
S214400BA0F081124B01934FF491630093104B114A1E
S214400BB041464046104CA0470124E8E70020B5E7F0
S214400BC00020B8E70020C5E70024CAE70024C8E7AD
S214400BD00020D4E70020D6E7A907400041044000A3
S214400BE055044000BD0940002D044000F0E3450098
S214400BF0A0E34500D8E345004F0740002DE9F0410B
S214400C0084B00446884617461E46394DA8473B687A
S214400C101B680422114638469847054608B100230B
S214400C20036002970395002D47D02046314B9847E6
S214400C30271A3846304B98470A284BDD07F10A00FA
S214400C402D4B9847002847D020442C4B98471328D4
S214400C5048D12046274B9847271A3846264B984770
S214400C600C283BDD07F10C00234B98470444002832
S214400C7036D02046224B984704448CB1274620461F
S214400C801C4B9847241A20461B4B984704282BDDBC
S214400C90201D194B984748B33844164B9847286050
S214400CA0002403943560039919B1029803685B6881
S214400CB09847204604B0BDE8F081124B019340F2BD
S214400CC06E730093104B114A41464046104CA04765
S214400CD00124E8E70020B5E70020B8E70020C5E794
S214400CE00024CAE70024C8E70020D4E70020D6E75F
S214400CF0A90740004104400055044000BD0940009B
S214400D002D044000F0E34500A0E34500D8E345004D
S214400D104F0740002DE9F04184B004468846174608
S214400D201E46394DA8473B681B6804221146384684
S214400D309847054608B10023036002970395002DA7
S214400D4047D02046314B9847271A3846304B98476D
S214400D500A284BDD07F10A002D4B9847002847D05C
S214400D6020442C4B9847232848D12046274B984769
S214400D70271A3846264B98470C283BDD07F10C00CF
S214400D80234B98470444002836D02046224B9847A9
S214400D9004448CB1274620461C4B9847241A2046CC
S214400DA01B4B984704282BDD201D194B984748B30A
S214400DB03844164B984728600024039435600399BE
S214400DC019B1029803685B689847204604B0BDE8AE
S214400DD0F081124B019340F285730093104B114AF9
S214400DE041464046104CA0470124E8E70020B5E7BE
S214400DF00020B8E70020C5E70024CAE70024C8E77B
S214400E000020D4E70020D6E7A90740004104400070
S214400E1055044000BD0940002D044000F0E3450065
S214400E20A0E34500D8E345004F0740002DE9F043D6
S214400E3085B00446894616461F46464DA847336841
S214400E401B680422242130469847054618B12422C0
S214400E500021414B984702960395002D5DD02046D1
S214400E603E4B9847A4EB000840463D4B98470A281F
S214400E7060DD08F10A003A4B984700285CD02044D1
S214400E80384B984711285DD12046344B9847A4EB01
S214400E9000084046324B98470C284FDD08F10C00BE
S214400EA02F4B9847044400284AD020462E4B98475C
S214400EB0044424B3A0462046284B9847241A20468C
S214400EC0274B984704283FDD201D254B98478044F4
S214400ED000283BD04046244B984708EB000474B1AA
S214400EE0224B00934B462A4621462020204DA847B9
S214400EF000282DD1039D20681E4B98472862039BEF
S214400F00002403943B60039919B1029803685B6818
S214400F109847204605B0BDE8F083174B019340F252
S214400F20C3630093154B164A49464846154CA0479E
S214400F300124E8E70020A0E70020A3E70020B1E76F
S214400F400024B6E70024B4E70020C0E70024C6E744
S214400F500446D8E7A90740003D75450041044000D7
S214400F6055044000BD0940002D04400004E44500FF
S214400F702109400029044000F0E34500A0E3450075
S214400F80D8E345004F0740002DE9F04385B00446BE
S214400F90894616461F46484DA84733681B680422B4
S214400FA0242130469847054618B124220021434B59
S214400FB0984702960395002D5ED02046404B9847B2
S214400FC0A4EB000840463F4B98470A2861DD08F1ED
S214400FD00A003C4B984700285DD020443A4B98473F
S214400FE01E285ED12046364B9847A4EB0008404664
S214400FF0344B98470C2850DD08F10C00314B98478D
S214401000044400284BD02046304B984704442CB329
S214401010A04620462A4B9847241A2046294B9847F4
S214401020042840DD201D274B9847804400283CD0AC
S2144010304046264B984708EB0004002C37D0244BFC
S21440104000934B462A4621462020224DA84700289A
S21440105030D1039D2068204B98472862039B00248C
S21440106003943B60039919B1029803685B689847FC
S214401070204605B0BDE8F083184B019340F2B673A6
S2144010800093174B174A49464846174CA047012439
S214401090E8E700209FE70020A2E70020B0E7002412
S2144010A0B5E70024B3E70020BFE70024C5E70023E8
S2144010B02B62D3E70446D5E7A90740003D754500B7
S2144010C04104400055044000BD0940002D04400046
S2144010D00CE445002109400029044000F0E34500A7
S2144010E0A0E34500D8E345004F0740002DE9F04116
S2144010F084B00446884617461E46454DA8473B687A
S2144011001B680422082138469847054610B100233C
S2144011100360436002970395002D59D020463D4B0F
S2144011209847271A38463C4B98470A285DDD07F112
S2144011300A00394B9847002859D02044374B9847E7
S2144011403B285AD12046334B9847271A3846324BCD
S21440115098470C284DDD07F10C002F4B9847044468
S214401160002848D020462E4B984704441CB32746B8
S2144011702046284B9847241A2046274B9847042851
S2144011803DDD201D244B984700283AD03844214B5B
S2144011909847286038461F4B98473C1A20461E4BB7
S2144011A0984706282FDDA01D1B4B984768B3384448
S2144011B0184B98476860002403943560039919B12A
S2144011C0029803685B689847204604B0BDE8F08103
S2144011D0144B01934FF4C7630093134B134A414695
S2144011E04046134CA0470124E8E70020A3E7002030
S2144011F0A6E70020B3E70024B8E70024B6E70020BF
S214401200C2E70020C5E70020D0E70020D2E700BFB5
S214401210A90740004104400055044000BD09400075
S2144012202D044000F0E34500A0E34500D8E3450028
S2144012304F0740002DE9F04184B0044688461746E3
S2144012401E46454DA8473B681B6804220821384681
S2144012509847054610B10023036043600297039504
S214401260002D59D020463D4B9847271A38463C4BD0
S21440127098470A285DDD07F10A00394B9847002851
S21440128059D02044374B984740285AD12046334BB4
S2144012909847271A3846324B98470C284DDD07F1B9
S2144012A00C002F4B98470444002848D020462E4B2D
S2144012B0984704441CB327462046284B9847241A90
S2144012C02046274B984704283DDD201D244B984751
S2144012D000283AD03844214B9847286038461F4B60
S2144012E098473C1A20461E4B984706282FDDA01DDF
S2144012F01B4B984768B33844184B9847686000249F
S21440130003943560039919B1029803685B6898475F
S214401310204604B0BDE8F081144B019340F66303C9
S2144013200093134B134A41464046134CA0470124B2
S214401330E8E70020A3E70020A6E70020B3E7002464
S214401340B8E70024B6E70020C2E70020C5E7002043
S214401350D0E70020D2E700BFA90740004104400084
S21440136055044000BD0940002D044000F0E3450010
S214401370A0E34500D8E345004F0740002DE9F04183
S21440138084B00446884617461E463B4DA8473B68F1
S2144013901B680122114638469847054608B1002387
S2144013A0037002970395002D4AD02046334B98474A
S2144013B0271A3846324B98470A284EDD07F10A006E
S2144013C02F4B984700284AD020442E4B98471B283E
S2144013D04BD12046294B9847271A3846284B9847E2
S2144013E00C283EDD07F10C00254B984704440028A6
S2144013F039D02046244B98470444A4B1274620467B
S2144014001E4B9847241A20461D4B984704282EDD2D
S214401410201D1B4B984760B338441A4B9847003002
S21440142018BF01202870002403943560039919B131
S214401430029803685B689847204604B0BDE8F08190
S214401440124B019340F299630093114B114A414667
S2144014504046114CA0470124E8E70020B2E70020B0
S214401460B5E70020C2E70024C7E70024C5E7002010
S214401470D1E70020D3E700BFA90740004104400061
S21440148055044000BD0940002D044000F0E34500EF
S214401490A0E34500D8E345004F0740002DE9F04162
S2144014A084B00446884615461F466E4EB0472B68A5
S2144014B01B680422142128469847064628B1002374
S2144014C0036043608360C360036102950396002E09
S2144014D000F09D802046644B9847251A2846634B6B
S2144014E098470A2840F3A08005F10A005F4B9847CA
S2144014F0002800F09B8020445D4B9847202840F011
S2144015009B802046584B9847251A2846574B984765
S2144015100C2840F38D8005F10C00544B984704444A
S214401520002800F087802046524B98470444002C01
S2144015305FD0254620464C4B9847241A20464B4BB6
S214401540984704287ADD201D484B9847002877D0D6
S2144015502844454B98473060039E2846424B984760
S2144015602C1A2046414B984706286BDDA01D3F4B62
S2144015709847002868D028443B4B98477060039CA7
S2144015802846394B98472E1A3046384B98470828F5
S2144015905CDD06F10800354B9847002858D02844B3
S2144015A0314B9847A06028462F4B98472E1A304616
S2144015B02E4B98470A284DDD06F10A002B4B9847DC
S2144015C0002849D02844284B9847E0602846264BB8
S2144015D098472E1A3046254B98470C283EDD06F194
S2144015E00C00224B984700283AD028441E4B984778
S2144015F02061039B002403943B60039919B1029831
S21440160003685B689847204604B0BDE8F0811A4BF3
S21440161001934FF4FD630093184B194A41464046E8
S214401620184CA0470124E8E7002061E7002065E762
S214401630002074E700247AE7002478E7002085E756
S214401640002088E7002094E7002097E70020A4E7E2
S2144016500020A7E70020B3E70020B6E70020C2E757
S2144016600020C5E7A907400041044000550440005B
S214401670BD0940002D044000F0E34500A0E34500CE
S214401680D8E345004F0740002DE9F04184B00446BA
S214401690884617461E46494DA8473B681B680122A8
S2144016A0022138469847054610B100230370437020
S2144016B002970395002D61D02046414B9847271A44
S2144016C03846404B98470A2865DD07F10A003D4BEF
S2144016D09847002861D020443B4B9847662862D103
S2144016E02046374B9847271A3846364B98470C289B
S2144016F055DD07F10C00334B98470444002850D082
S2144017002046324B98470444002C2AD02746204691
S2144017102B4B9847241A20462A4B9847042844DDEA
S214401720201D284B9847002841D03844264B9847E0
S214401730003018BF012028703846214B98473C1A85
S2144017402046204B9847062833DDA01D1D4B984762
S214401750002830D038441C4B9847003018BF012032
S2144017606870002403943560039919B102980368A1
S2144017705B689847204604B0BDE8F081144B01935F
S21440178040F26D430093134B134A41464046134C78
S214401790A0470124E8E700209BE700209EE70020C2
S2144017A0ABE70024B0E70024AEE70020BBE700200C
S2144017B0BEE70020CCE70020CFE700BFA9074000E7
S2144017C04104400055044000BD0940002D0440003F
S2144017D0F0E34500A0E34500D8E345004F0740004E
S2144017E02DE9F04184B00446884617461E464C4DC7
S2144017F0A8473B681B6801220221384698470546A1
S21440180010B100230370437002970395002D64D0F7
S2144018102046444B9847271A3846434B98470A2851
S21440182068DD07F10A00404B9847002864D0204402
S2144018303E4B98470F2865D120463A4B9847271A83
S2144018403846394B98470C2858DD07F10C00364B84
S21440185098470444002853D02046354B98470444C4
S214401860002C59D0274620462E4B9847241A20460F
S2144018702D4B9847082847DD04F108002A4B984727
S214401880002843D03844294B9847003018BF0120E1
S21440189028703846234B98473C1A2046224B984798
S2144018A00A2835DD04F10A001F4B9847002831D03E
S2144018B038441E4B9847003018BF01206870039B81
S2144018C0002403943360039919B1029803685B6857
S2144018D09847204604B0BDE8F081164B01934FF47C
S2144018E0DD630093144B154A41464046144CA047CE
S2144018F00124E8E7002098E700209BE70020A8E7BF
S2144019000024ADE70024ABE70020B9E70020BCE7A1
S2144019100020CBE70020CEE700232B706B70CEE78D
S214401920A90740004104400055044000BD0940005E
S2144019302D044000F0E34500A0E34500D8E3450011
S2144019404F0740002DE9F04184B0044688461746CC
S2144019501E464B4DA8473B681B680122022138466D
S2144019609847054610B100230370437002970395CD
S214401970002D62D02046434B9847271A3846424BA4
S21440198098470A2866DD07F10A003F4B984700282B
S21440199062D020443D4B98474A2863D12046394B75
S2144019A09847271A3846384B98470C2856DD07F193
S2144019B00C00354B98470444002851D02046344B01
S2144019C098470444002C57D0274620462D4B98472E
S2144019D0241A20462C4B9847042845DD201D2A4BC8
S2144019E09847002842D03844284B9847003018BFC4
S2144019F0012028703846234B98473C1A2046224BF5
S214401A009847062834DDA01D1F4B9847002831D044
S214401A1038441E4B9847003018BF01206870039B1F
S214401A20002403943360039919B1029803685B68F5
S214401A309847204604B0BDE8F081164B019340F22B
S214401A4003730093144B154A41464046144CA04736
S214401A500124E8E700209AE700209DE70020AAE757
S214401A600024AFE70024ADE70020BAE70020BDE73A
S214401A700020CBE70020CEE700232B706B70CEE72C
S214401A80A90740004104400055044000BD094000FD
S214401A902D044000F0E34500A0E34500D8E34500B0
S214401AA04F0740007047000008B590F90000014B12
S214401AB0984708BDA51A40002DE9F04184B0044679
S214401AC0884617461E463B4DA8473B681B68012282
S214401AD0114638469847054608B1002303700297DA
S214401AE00395002D4BD02046334B9847271A38464F
S214401AF0324B98470A284FDD07F10A002F4B98478C
S214401B0000284BD020442E4B98470C284CD12046DA
S214401B10294B9847271A3846284B98470C283FDDCC
S214401B2007F10C00254B9847044400283AD020463D
S214401B30244B98470444ACB1274620461E4B984752
S214401B40241A20461D4B984704282FDD201D1B4B8A
S214401B50984700282CD038441B4B9847C0B21B4BA4
S214401B6098472870002403943560039919B1029869
S214401B7003685B689847204604B0BDE8F081144B84
S214401B80019340F297530093124B134A4146404606
S214401B90124CA0470124E8E70020B1E70020B4E754
S214401BA00020C1E70024C6E70024C4E70020D0E7B1
S214401BB00020D3E7A90740004104400055044000F8
S214401BC0BD0940002D044000A91A40006D074000A2
S214401BD0F0E34500A0E34500D8E345004F0740004A
S214401BE02DE9F04184B00446884617461E463B4DD4
S214401BF0A8473B681B680122114638469847054669
S214401C0008B10023037002970395002D4BD0204661
S214401C10334B9847271A3846324B98470A284FDDA9
S214401C2007F10A002F4B984700284BD020442E4BF4
S214401C30984715284CD12046294B9847271A3846AE
S214401C40284B98470C283FDD07F10C00254B98475A
S214401C50044400283AD02046244B98470444ACB16C
S214401C60274620461E4B9847241A20461D4B984729
S214401C7004282FDD201D1B4B984700282CD03844C5
S214401C801B4B9847C0B21B4B9847287000240394C0
S214401C903560039919B1029803685B6898472046F7
S214401CA004B0BDE8F081144B019340F20F630093FB
S214401CB0124B134A41464046124CA0470124E8E7DF
S214401CC00020B1E70020B4E70020C1E70024C6E7C3
S214401CD00024C4E70020D0E70020D3E7A90740004F
S214401CE04104400055044000BD0940002D0440001A
S214401CF0A91A40006D074000F0E34500A0E3450008
S214401D00D8E345004F0740002DE9F04184B0044633
S214401D10884616461F46554DA84733681B6804221A
S214401D200C2130469847054618B10023037043609F
S214401D30836002960395002D74D020464C4B9847FE
S214401D40261A30464B4B98470A2878DD06F10A009B
S214401D50484B9847002874D02044474B9847312832
S214401D6075D12046424B9847261A3046414B9847F5
S214401D700C2868DD06F10C003E4B984704440028CA
S214401D8063D020463D4B98470444002C3CD0264622
S214401D902046374B9847241A2046364B9847042807
S214401DA057DD201D334B9847002854D03044344BE1
S214401DB09847C0B2334B98472870039D30462C4B0B
S214401DC09847341A20462B4B9847062845DDA01DD9
S214401DD0284B9847002842D03044254B98476860A7
S214401DE0039D3046224B9847341A2046214B98474D
S214401DF0082836DD04F108001E4B9847002832D0EC
S214401E0030441B4B9847A860039B002403943B60D8
S214401E10039919B1029803685B689847204604B056
S214401E20BDE8F081184B019340F64B030093174BE7
S214401E30174A41464046174CA0470124E8E7002091
S214401E4088E700208BE7002098E700249DE70024E1
S214401E509BE70020A8E70020ABE70020BAE7002079
S214401E60BDE70020CAE70020CDE700BFA907400035
S214401E704104400055044000BD0940002D04400088
S214401E80A91A400095074000F0E34500A0E345004E
S214401E90D8E345004F0740002DE9F04184B00446A2
S214401EA0884616461F46564DA84733681B68042288
S214401EB0082130469847054618B100230360037151
S214401EC0437102960395002D77D020464D4B984798
S214401ED0261A30464C4B98470A287BDD06F10A0006
S214401EE0494B9847002877D02044484B98470628C7
S214401EF078D12046434B9847261A3046424B98475F
S214401F000C286BDD06F10C003F4B98470444002834
S214401F1066D020463E4B98470444002C3FD0264689
S214401F202046384B9847241A2046374B9847042873
S214401F305ADD201D344B9847002857D03044314B4B
S214401F4098472860039D30462E4B9847341A2046C3
S214401F502D4B984706284BDDA01D2B4B9847002855
S214401F6048D030442B4B9847C0B22B4B98472871EB
S214401F70039D3046234B9847341A2046224B9847B9
S214401F80082839DD04F108001F4B9847002835D053
S214401F9030441E4B9847003018BF01206871039BA1
S214401FA0002403943B60039919B1029803685B6868
S214401FB09847204604B0BDE8F081184B019340F6A0
S214401FC01E030093164B174A41464046164CA04700
S214401FD00124E8E7002085E7002088E7002095E711
S214401FE000249AE7002498E70020A5E70020A8E709
S214401FF00020B4E70020B7E70020C7E70020CAE784
S214402000A90740004104400055044000BD09400077
S2144020102D044000A91A40006D074000F0E345003B
S214402020A0E34500D8E345004F0740002DE9F041C6
S21440203084B00446884617461E46464DA8473B6829
S2144020401B680422082138469847054610B10023ED
S2144020500360037102970395002D5CD020463E4BEB
S2144020609847271A38463D4B98470A2860DD07F1BF
S2144020700A003A4B984700285CD02044384B984793
S2144020800A285DD12046344B9847271A3846334BAA
S21440209098470C2850DD07F10C00304B9847044415
S2144020A000284BD020462F4B9847044434B327464D
S2144020B02046294B9847241A2046284B98470628FE
S2144020C040DDA01D254B984700283DD03844264B80
S2144020D09847C0B2254B9847287138461E4B9847BC
S2144020E03C1A20461D4B984704282FDD201D1B4BCD
S2144020F0984768B33844184B9847286000240394A0
S2144021003560039919B1029803685B689847204682
S21440211004B0BDE8F081164B019340F23243009381
S214402120144B154A41464046144CA0470124E8E764
S2144021300020A0E70020A3E70020B0E70024B5E792
S2144021400024B3E70020BFE70020C2E70020D0E726
S2144021500020D2E7A9074000410440005504400053
S214402160BD0940002D044000A91A40006D074000FC
S214402170F0E34500A0E34500D8E345004F074000A4
S2144021802DE9F04184B00446884617461E46494D20
S214402190A8473B681B6801220221384698470546F7
S2144021A010B100230370437002970395002D61D051
S2144021B02046414B9847271A3846404B98470A28AE
S2144021C065DD07F10A003D4B9847002861D0204462
S2144021D03B4B98470B2862D12046374B9847271AE7
S2144021E03846364B98470C2855DD07F10C00334BE4
S2144021F098470444002850D02046324B9847044421
S214402200002C2AD0274620462B4B9847241A204697
S2144022102A4B9847042844DD201D284B9847002821
S21440222041D03844284B9847C0B2284B984728702E
S2144022303846214B98473C1A2046204B984706285C
S21440224033DDA01D1D4B9847002830D038441C4B2A
S2144022509847003018BF012068700024039435600A
S214402260039919B1029803685B689847204604B002
S214402270BDE8F081164B019340F2A5330093154B11
S214402280154A41464046154CA0470124E8E7002041
S2144022909BE700209EE70020ABE70024B0E7002441
S2144022A0AEE70020BBE70020BEE70020CCE70120D9
S2144022B0CFE700BFA9074000410440005504400056
S2144022C0BD0940002D044000A91A40006D0740009B
S2144022D0F0E34500A0E34500D8E345004F07400043
S2144022E02DE9F04184B00446884617461E46494DBF
S2144022F0A8473B681B680122022138469847054696
S21440230010B100230370437002970395002D61D0EF
S2144023102046414B9847271A3846404B98470A284C
S21440232065DD07F10A003D4B9847002861D0204400
S2144023303B4B98471C2862D12046374B9847271A74
S2144023403846364B98470C2855DD07F10C00334B82
S21440235098470444002850D02046324B98470444BF
S214402360002C2AD0274620462B4B9847241A204636
S2144023702A4B9847042844DD201D284B98470028C0
S21440238041D03844284B9847C0B2284B98472870CD
S2144023903846214B98473C1A2046204B98470628FB
S2144023A033DDA01D1D4B9847002830D038441C4BC9
S2144023B09847003018BF01206870002403943560A9
S2144023C0039919B1029803685B689847204604B0A1
S2144023D0BDE8F081164B019340F604030093154B7D
S2144023E0154A41464046154CA0470124E8E70020E0
S2144023F09BE700209EE70020ABE70024B0E70024E0
S214402400AEE70020BBE70020BEE70020CCE7012077
S214402410CFE700BFA90740004104400055044000F4
S214402420BD0940002D044000A91A40006D07400039
S214402430F0E34500A0E34500D8E345004F074000E1
S2144024402DE9F04385B00446894617461E46136874
S2144024501B680122114638469847054608B10023B6
S214402460037002970395002D50D02046354B984771
S214402470A4EB00084046344B98470A2853DD08F141
S2144024800A00314B984700284FD020442F4B98479E
S214402490372850D120462B4B9847A4EB000840469F
S2144024A0294B98470C2842DD08F10C00264B9847EC
S2144024B0044400283DD02046254B98470444C4B1E8
S2144024C0A04620461F4B9847241A20461E4B984746
S2144024D0042832DD201D1C4B984700282FD040444E
S2144024E01C4B98474A462946C0B21B4B9847044661
S2144024F010B9002403943560039919B10298036813
S2144025005B689847204605B0BDE8F083134B0193BF
S21440251040F22A730093124B124A49464846124CE0
S214402520A0470124E8E70020ADE70020B0E7002000
S214402530BEE70024C3E70024C1E70020CDE7002023
S214402540D0E700BF4104400055044000BD094000AC
S2144025502D044000A91A4000C9074000F0E345009A
S214402560A0E34500D8E345004F0740002DE9F0437F
S21440257085B00446894617461E463E4DA8473B68EA
S2144025801B680122114638469847054608B1002385
S214402590037002970395002D50D02046364B98473F
S2144025A0A4EB00084046354B98470A2853DD08F10F
S2144025B00A00324B984700284FD02044304B98476B
S2144025C0282850D120462C4B9847A4EB000840467C
S2144025D02A4B98470C2842DD08F10C00274B9847B9
S2144025E0044400283DD02046264B98470444C4B1B6
S2144025F0A0462046204B9847241A20461F4B984713
S214402600042832DD201D1D4B984700282FD040441B
S2144026101D4B98474A462946C0B21C4B984704462D
S21440262010B9002403943560039919B102980368E1
S2144026305B689847204605B0BDE8F083144B01938D
S2144026404FF471730093134B134A49464846134C54
S214402650A0470124E8E70020ADE70020B0E70020CF
S214402660BEE70024C3E70024C1E70020CDE70020F2
S214402670D0E700BFA9074000410440005504400091
S214402680BD0940002D044000A91A4000C90740007B
S214402690F0E34500A0E34500D8E345004F0740007F
S2144026A02DE9F04385B00446894617461E463E4D02
S2144026B0A8473B681B68012211463846984705469E
S2144026C008B10023037002970395002D50D0204692
S2144026D0364B9847A4EB00084046354B98470A28A7
S2144026E053DD08F10A00324B984700284FD020446B
S2144026F0304B9847392850D120462C4B9847A4EB6E
S214402700000840462A4B98470C2842DD08F10C004A
S214402710274B9847044400283DD02046264B9847F0
S2144027200444C4B1A0462046204B9847241A20466D
S2144027301F4B9847042832DD201D1D4B9847002824
S2144027402FD040441D4B98474A462946C0B21C4BA2
S2144027509847044610B9002403943560039919B18C
S214402760029803685B689847204605B0BDE8F0834A
S214402770144B019340F2DD330093134B134A494602
S2144027804846134CA0470124E8E70020ADE7002068
S214402790B0E70020BEE70024C3E70024C1E70020DE
S2144027A0CDE70020D0E700BFA90740004104400025
S2144027B055044000BD0940002D044000A91A4000C1
S2144027C0C9074000F0E34500A0E34500D8E34500D4
S2144027D04F0740002DE9F04184B004468846154630
S2144027E01F467F4EB0472B681B6804221821284698
S2144027F09847064630B10023036043608360C36059
S2144028000361436102950396002E00F0B98020468E
S214402810744B9847251A2846734B98470A2840F326
S214402820BC8005F10A00704B9847002800F0B7803E
S21440283020446E4B9847012840F0B7802046694BAD
S2144028409847251A2846684B98470C2840F3A98095
S21440285005F10C00644B98470444002800F0A38020
S2144028602046634B98470444002C7BD025462046A0
S2144028705C4B9847241A20465B4B9847042840F305
S2144028809680201D584B9847002800F09280284498
S214402890584B9847C0B2584B98473070039E2846CE
S2144028A0504B98472C1A20464F4B9847062840F3E3
S2144028B08280A01D4C4B984700287ED02844494B28
S2144028C098477060039C2846464B98472E1A3046D9
S2144028D0454B9847082872DD06F10800424B98475A
S2144028E000286ED028443F4B9847A06028463D4B72
S2144028F098472E1A30463C4B98470A2863DD06F127
S2144029000A00394B984700285FD02844394B9847EF
S214402910C0B23A4B984720732846324B98472E1AF7
S2144029203046314B98470C2851DD06F10C002E4BB3
S214402930984700284DD028442A4B9847206128467F
S214402940284B98472E1A3046274B98470E2842DD8C
S21440295006F10E00244B984700283ED02844214BD1
S21440296098476061039B002403943B60039919B128
S214402970029803685B689847204604B0BDE8F0813B
S2144029801F4B019340F24D4300931E4B1E4A414657
S21440299040461E4CA0470124E8E7002045E70020BB
S2144029A049E7002058E700245EE700245CE7002063
S2144029B06AE700206EE700207EE7002081E70020DF
S2144029C08EE7002091E700209DE70020A0E700204A
S2144029D0AFE70120B2E70020BEE70120C1E700BF15
S2144029E0A90740004104400055044000BD0940008E
S2144029F02D044000A91A4000950740006D0740008E
S214402A00F0E34500A0E34500D8E345004F0740000B
S214402A102DE9F04184B00446884615461E467D4F53
S214402A20B8472B681B680422282128469847074643
S214402A3018B128220021784B984702950397002F1B
S214402A4000F0B9802046754B9847251A2846744BA7
S214402A5098470A2840F3BC8005F10A00704B984717
S214402A60002800F0B78020446E4B9847052840F079
S214402A70B7802046694B9847251A2846684B9847A2
S214402A800C2840F3A98005F10C00654B9847044498
S214402A90002800F0A3802046634B98470444002C4F
S214402AA07BD0254620465D4B9847241A20465C4BF3
S214402AB09847042840F39680201D594B9847002895
S214402AC000F092802844594B9847C0B2584B9847DC
S214402AD03870039F2846514B98472C1A2046504B37
S214402AE09847062840F38280A01D4D4B9847002803
S214402AF07ED02844494B98477860039C2846474BED
S214402B0098472F1A3846464B9847082872DD07F1F3
S214402B100800434B984700286ED028443F4B9847C0
S214402B20A06028463D4B98472F1A38463C4B98475E
S214402B300A2863DD07F10A00394B984700285FD022
S214402B402844364B9847E0602846344B98472F1A1F
S214402B503846334B98470C2854DD07F10C00304B71
S214402B609847002850D028442C4B98472061284648
S214402B702A4B98472F1A3846294B98470E2845DD4A
S214402B8007F10E00264B9847002841D02844274B93
S214402B909847C0B2274B98472075039B0024039460
S214402BA03360039919B1029803685B6898472046DA
S214402BB004B0BDE8F081204B019340F2616300937E
S214402BC01E4B1F4A414640461E4CA0470124E8E79C
S214402BD0002045E7002049E7002058E700245EE74C
S214402BE000245CE700206AE700206EE700207EE7CE
S214402BF0002081E700208EE7002091E700209DE737
S214402C000020A0E70020ACE70020AFE70020BBE7AD
S214402C100020BEE7A90740003D754500410440003E
S214402C2055044000BD0940002D044000A91A40004C
S214402C30950740006D074000F0E34500A0E34500DF
S214402C40D8E345004F0740002DE9F04385B00446E1
S214402C50894617461E466C4DA8473B681B680122AE
S214402C60042138469847054608B10023036002977A
S214402C700395002D00F08E802046644B9847A4EBC9
S214402C8000084046624B98470A2840F3908008F177
S214402C900A005F4B9847002800F08B8020445D4B2D
S214402CA09847082840F08B802046584B9847A4EB1E
S214402CB000084046564B98470C287CDD08F10C002F
S214402CC0534B98470444002877D02046524B9847A9
S214402CD00444002C00F08780A04620464B4B984783
S214402CE0241A20464A4B984704286ADD201D484B44
S214402CF09847002867D04044484B9847C0B2484B56
S214402D00984728704046414B9847A8EB0004204619
S214402D103F4B9847082858DD04F108003C4B98473D
S214402D20002854D040443B4B9847003018BF012001
S214402D30A8704046354B9847A8EB00042046344BD5
S214402D4098470A2845DD04F10A00314B9847002889
S214402D5041D040442F4B9847003018BF0120E870C0
S214402D6040462A4B9847A8EB00042046284B9847F5
S214402D70062832DDA01D264B984780B34044274B9B
S214402D80984770B301283BD026494846264B98477B
S214402D9001242BE0254B019340F21D530093244B16
S214402DA0244A49464846244CA04701241EE00020B9
S214402DB071E7002075E7002084E7002489E70024B7
S214402DC087E7002095E7002098E70020A8E7002046
S214402DD0ABE70020BBE70020BEE70020CDE70020A1
S214402DE0CFE700236B70002403943560039919B134
S214402DF0029803685B689847204605B0BDE8F083B4
S214402E0001236B70EFE700BFA90740004104400074
S214402E1055044000BD0940002D044000A91A40005A
S214402E206D07400014E4450031074000F0E34500DC
S214402E30A0E34500D8E345004F0740002DE9F041A8
S214402E4084B00446884615461F468D4EB0472B68CC
S214402E501B6804221C2128469847064638B10023A2
S214402E60036043608360C36003614361836102958E
S214402E700396002E00F0D0802046824B9847251AB5
S214402E802846814B98470A2840F3D38005F10A002C
S214402E907D4B9847002800F0CE8020447B4B9847D7
S214402EA0022840F0CE802046764B9847251A284682
S214402EB0754B98470C2840F3C08005F10C00724BC8
S214402EC098470444002800F0BA802046704B984744
S214402ED00444002C00F0928025462046694B9847D3
S214402EE0241A2046684B9847042840F3AC80201D9F
S214402EF0654B9847002800F0A8802844654B9847C3
S214402F00C0B2654B98473070039E28465D4B984745
S214402F102C1A20465C4B9847062840F39880A01D04
S214402F20594B9847002800F094802844554B9847C2
S214402F307060039C2846534B98472E1A3046524B97
S214402F409847082840F3878006F108004E4B98477C
S214402F50002800F0828028444A4B9847A0602846C4
S214402F60484B98472E1A3046474B98470A2876DDF6
S214402F7006F10A00444B9847002872D02844414B3B
S214402F809847E06028463F4B98472E1A30463E4BBF
S214402F9098470C2867DD06F10C003B4B9847002805
S214402FA063D028443B4B9847C0B23C4B984720746C
S214402FB02846344B98472E1A3046334B98470E28AF
S214402FC055DD06F10E00304B9847002851D0284476
S214402FD02C4B9847606128462A4B98472E1A304615
S214402FE0294B9847102846DD06F11000264B984797
S214402FF0002842D02844234B9847A061039B0024D6
S21440300003943B60039919B1029803685B6898473C
S214403010204604B0BDE8F081214B019340F2A24324
S2144030200093204B204A41464046204CA04701246E
S214403030E8E700202EE7002032E7002041E70024A2
S21440304047E7002445E7002054E7002058E70020E3
S21440305068E700206CE700207AE700207EE7002043
S2144030608AE700208DE7002099E700209CE70020B3
S214403070ABE70120AEE70020BAE70120BDE700BF7E
S214403080A90740004104400055044000BD094000E7
S2144030902D044000A91A4000950740006D074000E7
S2144030A0F0E34500A0E34500D8E345004F07400065
S2144030B07047000008B50068014B984708BD00BF40
S2144030C0B13040002DE9F04184B0044688461746AA
S2144030D01E46394DA8473B681B68042211463846B1
S2144030E09847054608B10023036002970395002DD4
S2144030F047D02046314B9847271A3846304B98479A
S2144031000A284BDD07F10A002D4B9847002847D088
S21440311020442C4B9847092848D12046274B9847AF
S214403120271A3846264B98470C283BDD07F10C00FB
S214403130234B98470444002836D02046224B9847D5
S21440314004448CB1274620461C4B9847241A2046F8
S2144031501B4B984704282BDD201D194B984748B336
S21440316038441A4B984728600024039435600399E6
S21440317019B1029803685B689847204604B0BDE8DA
S214403180F081134B019340F24C730093114B124A5B
S21440319041464046114CA0470124E8E70020B5E7E9
S2144031A00020B8E70020C5E70024CAE70024C8E7A7
S2144031B00020D4E70020D6E7A9074000410440009D
S2144031C055044000BD0940002D044000B530400085
S2144031D0F0E34500A0E34500D8E345004F07400034
S2144031E02DE9F04184B00446884617461E46394DC0
S2144031F0A8473B681B680422114638469847054650
S21440320008B10023036002970395002D47D020465F
S214403210314B9847271A3846304B98470A284BDD9B
S21440322007F10A002D4B9847002847D020442C4BE6
S21440323098474B2848D12046274B9847271A384668
S214403240264B98470C283BDD07F10C00234B98474C
S2144032500444002836D02046224B984704448CB17C
S214403260274620461C4B9847241A20461B4B984717
S21440327004282BDD201D194B984748B338441A4B79
S21440328098472860002403943560039919B1029842
S21440329003685B689847204604B0BDE8F081134B4E
S2144032A0019340F2AF530093114B124A41464046B9
S2144032B0114CA0470124E8E70020B5E70020B8E716
S2144032C00020C5E70024CAE70024C8E70020D4E76A
S2144032D00020D6E7A90740004104400055044000BE
S2144032E0BD0940002D044000B5304000F0E34500E5
S2144032F0A0E34500D8E345004F0740002DE9F843DA
S21440330004460F4690461E4600233360344B98478B
S21440331005462046334B9847A4EB00094846324BB7
S2144033209847082817DD09F108002F4B9847A0B1A9
S21440333020442C4B98478146912D11DC202D22D0DD
S2144033403B681B684A46294638469847306078B1FD
S2144033500020BDE8F8830020E9E74FF00109EBE7DD
S2144033602A4622494046224B98470120BDE8F8832A
S2144033704B46204A52F825201F4940461C4CA04741
S2144033800120BDE8F8832046164B9847251A284664
S214403390154B9847062814DDA81D134B9847044440
S2144033A088B12046154B9847204470B13B685B680F
S2144033B04A46011D38469847306068B10020BDE84F
S2144033C0F8830020EBE70020EFE70D494046084B26
S2144033D098470120BDE8F8830120BDE8F88300BF88
S2144033E0B19F44004104400055044000F8E64500C3
S2144033F031074000ACE445004CE745002D04400052
S214403400F0E7450001308000704738B130B40546DB
S2144034100468A14206D0002030BC7047B1FA81F063
S214403420400970470023A34208DA05EB8301486849
S21440343052F82310884203D10133F4E70120EBE72A
S2144034400020E9E7884209D0002918BF002807D0A5
S21440345008B50A1D0968034B984708BD0120704708
S214403460002070470B34400010282AD8DFE800F0D0
S214403470092B0D11151F190B1B1321231D1725276B
S2144034800F0012487047124870471248704712485B
S21440349070471248704712487047124870471248A3
S2144034A07047124870471248704712487047124893
S2144034B07047124870471248704712487047124883
S2144034C07047124870471248704700BFC0EE45002C
S2144034D0D0EE4500D8EE4500E0EE4500E8EE45006B
S2144034E0F0EE4500F8EE450000EF450008EF4500D9
S2144034F010EF45001CEF450028EF450030EF450033
S21440350038EF450040EF45004CEF450054EF45008E
S214403510C8EE45002DE970438046894616461C464F
S21440352000220023214DA84720B1002333602360AA
S214403530BDE870832246404649461D4B98470022C8
S2144035401C4B1D4DA8471D4B98471D4B98474FF0A9
S2144035500042002382428B4113DB002908BFB0F1B2
S214403560004F10D0B0F1004F71F100031CDA236811
S21440357013F11F0F02DA0023236000203060BDE8FD
S2144035807083104B984702460B46002871F10005A1
S21440359006DB59104FEA3200236801332360E1E727
S2144035A0421C41F10003F4E7064B9847014B4500A7
S2144035B0A12045000000E041314645000521450078
S2144035C0E5524500796545002DE9F04106460F462F
S2144035D090461C460022094B094DA84750B1234649
S2144035E0424630463946074DA8472368002B03DB42
S2144035F0BDE8F081044B9847034B98470000F03FE6
S214403600514B450015354000796545002DE9F041A0
S21440361082B004460D461746984600220F4B104E81
S214403620B047A0B100220023204629460D4EB047A1
S21440363078B101AB3A46204629460B4CA047019B41
S214403640002B08DCC8F8003002B0BDE8F081074B1C
S2144036509847064B9847054B984700BF0000F03FF9
S214403660154B4500514B45001535400079654500E2
S214403670D0B584B0144CA04706460F460898C0F113
S2144036801F00012303FA00F0104B984732463B4692
S214403690A047CDE900010AA3D3E90023CDE90223E0
S2144036A00B4CA04740B969460A9B099AD1E90001EC
S2144036B0084CA04704B0D0BD02A9F5E7AFF30080A0
S2144036C00000C0FFFFFFDF4131464500654545002D
S2144036D0514B4500C93540002DE9F0470E460125BF
S2144036E005FA00FE121AA2F12003C2F1200105FAE3
S2144036F003F325FA01F143EA010705FA02F40EF155
S214403700FF30144B984780468946DFF85CA0204639
S2144037103946D04702460B46404649460E4CA047DF
S21440372080468946A6F12001C6F1200305FA01F13C
S21440373025FA03F305FA06F01943D04702460B462E
S21440374040464946054CA047054B9847054B984789
S214403750BDE8F0876545450031464500854845004B
S214403760891F4500654B4500D5454500F0B587B0F7
S2144037700646039202930C9BDD681C6901290DD016
S214403780032945D0022900F0B080039B0D9A1360B0
S214403790029B0E9A1360002007B0F0BD2946002019
S2144037A0894B9847894B984705464FF04F41884B81
S2144037B0984738B14FF09E412846864B9847C0B947
S2144037C0002300E00023B3B12846834B98472044AB
S2144037D0059000200028DFD1039B059A9A4215DC0D
S2144037E003AB1B680D9A1360029B0E9A1360002071
S2144037F0D2E70123E7E77469784B009340F2591308
S214403800774A78493046A0470120E3E705ABE8E72A
S214403810294600206C4B98476C4B984707464FF01C
S2144038204F416B4B984738B14FF09E413846694BF5
S214403830984738BB002300E000232BB33846664B3E
S21440384098472044059000200028A5D1039B059A60
S2144038509A4224DD05AB1B680D9A136029466248E0
S214403860594B9847594B984705464FF04F41584B50
S2144038709847B0B14FF09E412846564B984728BBD4
S21440388000230FE00123D8E77769544B009340F2BA
S2144038905913534A53493046B8470120D4E703AB3F
S2144038A0D9E70023A3B128464B4B984720440590C0
S2144038B0002000287FF470AF029B059A9A4212DBE4
S2144038C002AB1B680E9A1360002065E70123E9E708
S2144038D07469424B009340F25913414A414930467D
S2144038E0A0470120E5E705ABEBE729463F48364BC6
S2144038F09847364B984707464FF04F41344B9847CA
S21440390038B14FF09E413846324B984748BB00236B
S21440391000E000233BB338462F4B984720440590A1
S214403920002000287FF438AF059B039A9A4225DA98
S21440393005AB1B680D9A136029464FF07E50224B0C
S2144039409847224B984705464FF04F41204B9847A3
S214403950B0B14FF09E4128461E4B984728BB0023E7
S2144039600FE00123D6E777691C4B009340F25913CA
S2144039701B4A1C493046B8470120D2E703ABD8E77C
S2144039800023A3B12846144B9847204405900020B6
S21440399000287FF401AF029B059A9A4212DB02ABE5
S2144039A01B680E9A13600020F6E60123E9E7746967
S2144039B00A4B009340F25913094A0A493046A04739
S2144039C00120E5E705ABEBE7D94F4500C1264500AA
S2144039D0D5514500C15145002952450090EF45005C
S2144039E064EF4500D8E345000000C040000080BFBB
S2144039F010B50B6853F8044BD143C90FA242A8BF79
S214403A00002141B153F8221000290ADB83682BB10C
S214403A1003EB811010BD4FF0FF31F5E7036D98477B
S214403A2010BD002010BD0000F8B504461D460968CC
S214403A3051F8043B9A42B4BF0020012050EAD270AD
S214403A400DD151F82270B7F1FF3F0ED0002028B9B3
S214403A50A06880B100EB871028600020F8BD66693A
S214403A6007492046B0470120F1E7636905492046EB
S214403A7098470120EBE7236D394620469847EBE709
S214403A80B8EF4500E4EF450008B54B6853F8041B13
S214403A90002AA8BF914208DD53F8221000290ADB0D
S214403AA083682BB103EB811008BD4FF0FF31F5E77B
S214403AB0036D984708BD002008BD0000F8B50446D1
S214403AC01D46496851F8043B9342CCBF0020012074
S214403AD050EAD2700DD151F82270B7F1FF3F0ED0A8
S214403AE0002028B9A06880B100EB8710286000202D
S214403AF0F8BD666907492046B0470120F1E763698B
S214403B000549204698470120EBE7236D3946204675
S214403B109847EBE7B8EF4500E4EF450008B5014BA2
S214403B20984708BDF13940002DE9F04182B0804603
S214403B301D46C868D168144B98470446134B9847AF
S214403B4006460F4600212046114B984778B1E86854
S214403B500E4B984702460B46304639460D4CA0471A
S214403B60089BC3E90001002002B0BDE8F081D8F808
S214403B701440094B009340F24B13084A084940460C
S214403B80A0470120F0E700BF714E4500894545003B
S214403B90D55145008548450018F0450064EF45007E
S214403BA0D8E34500000000002DE9F04782B0824689
S214403BB00D4617461C46244EC868B0478046894680
S214403BC0F868B04702460B46404649461F4EB04747
S214403BD0E4B1804689461C4EE068B04702460B4634
S214403BE0404649461A4CA047804621F000440A9B6E
S214403BF0D868B04702460B4640462146154CA0477B
S214403C000FA3D3E90023144CA04750B10B9B00935D
S214403C100A9B3A4629465046104CA04702B0BDE89B
S214403C20F087DAF814400E4B00934FF49F730D4A1A
S214403C300D495046A0470120F0E700BFAFF3008093
S214403C407B14AE47E17A943F8945450031464500AE
S214403C50C942450085484500294B4500293B400060
S214403C6034F0450064EF4500D8E3450070B584B0B5
S214403C701478032C1AD0092C1BD0072C0CD147F6ED
S214403C80FF760E4D089C02940193009233462A46D6
S214403C900B4CA04704B070BD44690A4B009340F2F9
S214403CA09113094A0949A0470120F3E7FF2600255A
S214403CB0E8E77F266FF07F05E4E700BF0080FFFF60
S214403CC06D37400058F0450064EF4500D8E34500A6
S214403CD02DE9F04F93B007900A9391F83030012BBE
S214403CE03AD10E46914692F83030012B44D1536B70
S214403CF0002B50D0D3F800B0BBF1000F55D0DBF806
S214403D000070012F14DD0A78092A18BF072A56D1F9
S214403D1099F80020092A5CD1249A974268D1D9F8AC
S214403D2008209B6802EB83025368249A93426DD125
S214403D30F36808931C9BDB6809930BF1040A002484
S214403D40CDF82CB0B8460C96CDF83490229FDDF8CE
S214403D508CB0DDF890908BE0456901240394029383
S214403D60644B0193644B0093DB23644A6449A84741
S214403D70204613B0BDE8F08F0798456901240394A8
S214403D8002935C4B01935F4B0093DD235B4A5C4997
S214403D90A8472046EDE7079844695B4B0093E72326
S214403DA0564A5A49A0470120E3E707984469584BCA
S214403DB00093E823514A5549A0470120D9E7079880
S214403DC04469544B0093ED234C4A5049A047012088
S214403DD0CFE7079844690923039302924E4B019319
S214403DE04E4B0093EE23454A4549A0470120C0E785
S214403DF00798446903920297494B0193494B0093B5
S214403E00EF233E4A3E49A0470120B2E7079844695F
S214403E100393249B0293444B0193414B0093F2231C
S214403E20364A3749A0470120A3E70B9B58683F4DC9
S214403E30A847CDE904010898A84702460B46DDE9A5
S214403E4004013B4EB047CDE904010998A847024615
S214403E500B46DDE90401374DA84710AB0FAA364D97
S214403E60A8470F9B47F82430109B4BF8243001346A
S214403E704C4505DAB8F1010FD7DD5AF82400D6E7ED
S214403E800C9EDDF834903378032B08D03378032B20
S214403E9018BF092B1FD0072B1DD0002069E712AB97
S214403EA00020002163E9020101931C9B00930A9BBA
S214403EB04A4631460798214CA04700287FF459AF20
S214403EC00FAB1E9ADDE910011B4CA0470F9B5B42CF
S214403ED01F9A1360DAE71D9B1978219B0093209B5D
S214403EE01C9A0798164CA04700287FF442AF002043
S214403EF03FE700BF7CF0450098F0450064EF450082
S214403F0060F04500B4F04500D0F04500D8E34500E9
S214403F10E4F0450000F14500140D46003CF1450034
S214403F204CF145005CF1450080F14500894545006F
S214403F30314645008548450015354000A93B4000C0
S214403F406D3C400008B589688068034B9847003050
S214403F5018BF012008BD00BF453440000022026063
S214403F604260826070470120704708B503689B69CD
S214403F70984708BD08B50368DB69984708BD2029FF
S214403F8015D0002341F204028258934213D210B453
S214403F9000EB4312141D92698A420AD0013341F263
S214403FA0040282589342F3D3002010BC704700208E
S214403FB070472046F9E700207047000038B541F2C8
S214403FC08823C558802D0AD80023AB420ED2C2188B
S214403FD041F20804125D8A4203D00133F5E7044BF0
S214403FE0984703F2224350F8230038BD002038BDDE
S214403FF079654500F8B505460F46002400E00134D3
S21440400041F20403EB589C420FD205EB44131E1DAD
S2144040109B69202BF3D105EB44133946D869044BF2
S21440402098470028EBD13046F8BD0020F8BD00BFC9
S214404030897B45002DE9F0410446202912D00D46E3
S21440404016461F4603689B699847B0B141F28C23D9
S214404050E058002849D02A462749284B984701204F
S214404060BDE8F08141F28C23C05800283AD024495C
S214404070224B98470120BDE8F08141F2040354F8F2
S21440408003C0BCF17F0F0BD941F28C23E05878B3C4
S21440409080232A461B49194CA0470120BDE8F081E1
S2144040A004EB4C1808F1040E0FCEAEE80F0096E86D
S2144040B00F008EE80F00C8F818500CF1010341F2CB
S2144040C00402A35041F28822A358E01841F20801A6
S2144040D0455403F2224144F821700133A350002096
S2144040E0BDE8F0810120BDE8F0810120BDE8F08107
S2144040F00120BDE8F08100BFB8F24500310740001E
S21440410070F2450008F34500F0B589B00446002338
S21440411041F20402835041F28822835041F28C22BD
S2144041208350984B03606846974B984723689B6933
S214404130652120469847002800F0D18541F28C231F
S214404140E05818B165229149914B98476846914B83
S214404150984723689B69002120469847002800F02E
S214404160F28541F28C23E05818B100228749884BEB
S21440417098476846884B984723689B696A2120463B
S2144041809847002800F0138641F28C23E05818B177
S2144041906A227E497E4B98476846804B98472368FC
S2144041A09B69382120469847002800F0348641F223
S2144041B08C23E05818B138227449754B98476846A6
S2144041C0774B984723689B694F212046984700289D
S2144041D000F0558641F28C23E05818B14F226B49C7
S2144041E06B4B984768466F4B984723689B690121FD
S2144041F020469847002800F0768641F28C23E05807
S21440420018B101226149624B98476846664B984709
S21440421023689B69252120469847002800F0C286DF
S21440422041F28C23E05818B125225849584B9847FC
S21440423068465E4B984723689B69682120469847A6
S214404240002800F0E38641F28C23E05818B168223B
S2144042504E494F4B98476846554B984723689B694D
S214404260022120469847002800F0048741F28C231C
S214404270E05818B102224549454B984768464D4B91
S21440428098474D4B6A46032120464C4DA847684602
S2144042904B4B984723689B696C21204698470028DB
S2144042A000F01C8741F28C23E05818B16C22374945
S2144042B0374B98476846434B984723689B6980210D
S2144042C020469847002800F03D8741F28C23E0586E
S2144042D018B180222D492E4B984768463A4B98474E
S2144042E023689B69052120469847002800F05E8792
S2144042F041F28C23E05818B105222449244B9847B4
S2144043006846324B984723689B6904212046984765
S214404310002800F07F8741F28C23E05818B1042231
S2144043201A491B4B98476846294B984723689B6910
S214404330062120469847002800F0A08741F28C23AB
S214404340E05818B106221149114B9847214B98471F
S214404350054641F20403E3587F2B40F2D78741F2EB
S2144043608C23E05820B180231B4A1C49084DA8479F
S21440437068461B4B984723689B696F2120469847A1
S21440438030E000BF4CF245002DF94100B8F2450040
S214404390310740005D794000B5A34000BDA940000C
S2144043A0D9A94000D5D74200A9B640009DC44000D8
S2144043B0FD65410031804100D52740003540400032
S2144043C06DF94100299B4100B1B74100E9A2410087
S2144043D091C0410079CA41004CF345006CF345005A
S2144043E031024200002800F0B78741F28C23E058A3
S2144043F018B16F229649974B98476846964B984710
S21440440023689B69472120469847002800F0D887B4
S21440441041F28C23E05818B147228D498D4B98477E
S2144044208E4B9847064688B18D4B9847054641F2D5
S2144044300403E3587F2B40F2F78741F28C23E05881
S21440444020B180232A468749824DA8476846864B36
S214404450984723689B69462120469847002801F0E4
S2144044600B8041F28C23E05818B146227849794BAC
S214404470984768467D4B984723689B6908212046A5
S2144044809847002801F02C8041F28C23E05818B160
S21440449008226F496F4B98476846754B9847236884
S2144044A09B695A2120469847002801F04D8041F2EA
S2144044B08C23E05818B15A226549664B984768469F
S2144044C06C4B984723689B695F2120469847002895
S2144044D001F06E8041F28C23E05818B15F225C49AF
S2144044E05C4B98476846644B9847644B6A4609213C
S2144044F02046634DA8476846624B984723689B69A9
S2144045003D2120469847002801F09A8041F28C23AE
S214404510E05818B13D224E494E4B984768465A4B94
S214404520984723689B693E2120469847002801F01B
S214404530BB8041F28C23E05818B13E224449454B9B
S21440454098476846514B984723689B697521204693
S2144045509847002801F0DC8041F28C23E05818B1DF
S21440456075223B493B4B98476846494B98472368DA
S2144045709B690B2120469847002801F0FD8041F2B8
S2144045808C23E05818B10B223149324B9847684685
S214404590404B984723689B690C2120469847002843
S2144045A001F01E8141F28C23E05818B10C222849B4
S2144045B0284B98476846384B984723689B69622142
S2144045C020469847002801F03F8141F28C23E0586E
S2144045D018B162221E491F4B984768462F4B984792
S2144045E023689B693A2120469847002801F060815D
S2144045F041F28C23E05818B13A221549154B98479A
S2144046006846274B984723689B693F212046984732
S214404610002801F0818141F28C23E05818B13F22F6
S2144046200B490C4B984768461E4B984723689B6936
S214404630492120469847002801F0B68141F28C2354
S214404640E05888B349220249024B98472CE000BF05
S214404650B8F245003107400041CB4000CD0442004F
S214404660D10442006CF3450049064200F907420077
S214404670ED0A42006114420089184200492C40006D
S2144046803540400081CB4000A1CB4000CD214200C8
S2144046908D2E4200D1404200B1464200C1CB400080
S2144046A0E1CB40008DF941006846974B9847236818
S2144046B09B69562120469847002801F0A98141F27F
S2144046C08C23E05818B156229049914B984768463B
S2144046D0904B984723689B69572120469847002867
S2144046E001F0CA8141F28C23E05818B1572287491D
S2144046F0874B98476846884B984723689B69542160
S21440470020469847002801F0EB8141F28C23E05880
S21440471018B154227D497E4B984768467F4B984750
S21440472023689B690E2120469847002801F00C829A
S21440473041F28C23E05818B10E227449744B9847C6
S2144047406846774B984723689B69112120469847CF
S214404750002801F02D8241F28C23E05818B1112236
S2144047606A496B4B984768466E4B984723689B69E7
S214404770372120469847002801F04E8241F28C238C
S214404780E05818B137226149614B98476846664BF6
S2144047909847664B6A4628212046654DA847684696
S2144047A0644B984723689B693921204698470028E0
S2144047B001F0668241F28C23E05818B13922534901
S2144047C0534B984768465C4B984723689B69122131
S2144047D020469847002801F09B8241F28C23E058FF
S2144047E018B1122249494A4B98476846534B984756
S2144047F023689B693B2120469847002801F0BC82ED
S21440480041F28C23E05818B13B224049404B984730
S21440481068464B4B984723689B69482120469847F3
S214404820002801F0DD8241F28C23E05818B148227E
S2144048303649374B98476846424B984723689B69AA
S214404840532120469847002801F0FE8241F28C23EF
S214404850E05818B153222D492D4B984768463A4B9D
S214404860984723689B69222120469847002801F0F4
S2144048701F8341F28C23E05818B122222349244B4F
S21440488098476846314B984723689B693C212046A9
S2144048909847002801F0408341F28C23E05818B135
S2144048A03C221A491A4B98476846294B9847236832
S2144048B09B69362120469847002801F0618341F2E3
S2144048C08C23E05818B136221049114B9847684659
S2144048D0204B984723689B697221204698470028BA
S2144048E001F0828341F28C23E05818B172220749C6
S2144048F0074B98476846184B984723689B69522150
S214404900204698472AE000BFF94F4200B8F24500DB
S214404910310740000DFA4100DD4F42000959420080
S214404920F5D74200016F4200651343007D134000F7
S214404930354040001D6F4200B99B420069B14200BD
S21440494061CB4000D1B24200A5BE4200C5BE420087
S21440495049EA4200D500430085134300002801F091
S2144049608B8341F28C23E05818B152229649974BDC
S21440497098476846964B984723689B69132120467C
S2144049809847002801F0AC8341F28C23E05818B1D8
S21440499013228D498D4B984768468E4B984723681F
S2144049A09B69152120469847002801F0CD8341F2A7
S2144049B08C23E05818B115228349844B98476846A3
S2144049C0854B984723689B691621204698470028C0
S2144049D001F0EE8341F28C23E05818B116227A4952
S2144049E07A4B984768467D4B984723689B691721C2
S2144049F020469847002801F00F8441F28C23E05867
S214404A0018B117227049714B98476846744B9847BF
S214404A1023689B69612120469847002801F030842E
S214404A2041F28C23E05818B161226749674B98479A
S214404A3068466C4B984723689B6974212046984784
S214404A40002801F0518441F28C23E05818B17422BA
S214404A505D495E4B98476846634B984723689B6919
S214404A604C2120469847002801F0728441F28C235E
S214404A70E05818B14C225449544B984768465B4B13
S214404A80984723689B694D2120469847002801F0A7
S214404A90A78441F28C23E05818B14D224A494B4B2B
S214404AA098476846524B984723689B694221204660
S214404AB09847002801F0C88441F28C23E05818B18A
S214404AC042224149414B984768464A4B98474A4B91
S214404AD06A4619212046494DA8476846484B98479C
S214404AE023689B69262120469847002801F0E084E9
S214404AF041F28C23E05818B126223349334B98476D
S214404B006846404B984723689B691A212046984739
S214404B10002801F0018541F28C23E05818B11A2292
S214404B2029492A4B98476846374B984723689B69DC
S214404B30312120469847002801F0228541F28C23F7
S214404B40E05818B131222049204B984768462F4BF1
S214404B50984723689B69662120469847002801F0BD
S214404B60438541F28C23E05818B166221649174B0C
S214404B7098476846264B984723689B694B212046B2
S214404B809847002801F0648541F28C23E05818B11C
S214404B904B220D490D4B984768461E4B9847236855
S214404BA09B695C2120469847002801F0858541F2A4
S214404BB08C23E05818B15C220349044B984768465A
S214404BC0154B9847236829E0B8F245003107400066
S214404BD05D6D40007D6D4000C5394300393B430064
S214404BE059504300A9614300CDF94100E1634300B9
S214404BF04DF9410075644300C530400035404000E3
S214404C00457F4300658D430025954300959D4300B1
S214404C10ADF94100EDF941005DA743009B692B21AA
S214404C2020469847002801F08F8541F28C23E058B3
S214404C3018B12B22B549B64B98476846B54B9847AE
S214404C40B54B6A462D212046B44DA8476846B44B1E
S214404C509847B44B6A4629212046A8476846B24B37
S214404C609847B24B6A461B212046A8476846B04B39
S214404C709847B04B6A461C212046A8476846AE4B2C
S214404C809847AE4B6A4643212046A8476846AC4BF9
S214404C90984723689B69272120469847002801F0BB
S214404CA0878541F28C23E05818B127229749984BC4
S214404CB098476846A34B984723689B6958212046E7
S214404CC09847002801F0A88541F28C23E05818B197
S214404CD058228E498E4B9847204609B0F0BD41F287
S214404CE00403E7587F2F0CD941F28C23E058002864
S214404CF03FF42CAA802365229349854DA847FFF7A9
S214404D0025BA04EB471E0EF104056E460FCE0FC5BE
S214404D1096E80F0085E80F006521CEF81810013799
S214404D2041F20403E75041F28822A358E51841F2C5
S214404D300800295403F22241844844F821000133F4
S214404D40A350FFF703BA41F20403E7587F2F0CD96C
S214404D5041F28C23E05800283FF40BAA802300221F
S214404D6079496B4DA847FFF704BA04EB471E0EF18E
S214404D7004056E460FCE0FC596E80F0085E80F0077
S214404D800021CEF81810013741F20403E75041F2F3
S214404D908822A358E51841F20800295403F222411C
S214404DA06B4844F821000133A350FFF7E2B941F2C3
S214404DB00403E7587F2F0CD941F28C23E058002893
S214404DC03FF4EAA980236A225F49514DA847FFF77E
S214404DD0E3B904EB471E0EF104056E460FCE0FC531
S214404DE096E80F0085E80F006A21CEF818100137C4
S214404DF041F20403E75041F28822A358E51841F2F5
S214404E000800295403F22241524844F82100013355
S214404E10A350FFF7C1B941F20403E7587F2F0CD9DE
S214404E2041F28C23E05800283FF4C9A98023382259
S214404E304549374DA847FFF7C2B904EB471E0EF168
S214404E4004056E460FCE0FC596E80F0085E80F00A6
S214404E503821CEF81810013741F20403E75041F2EA
S214404E608822A358E51841F20800295403F222414B
S214404E70394844F821000133A350FFF7A0B941F266
S214404E800403E7587F2F0CD941F28C23E0580028C2
S214404E903FF4A8A980234F222B491D4DA847FFF772
S214404EA0A1B904EB471E0EF104056E460FCE0FC5A2
S214404EB096E80F0085E80F004F21CEF8181001370E
S214404EC041F20403E75041F28822A358E51841F224
S214404ED00800295403F22241204844F821000133B7
S214404EE0A350FFF77FB941F20403E7587F2F37D925
S214404EF041F28C23E05800283FF487A98023012202
S214404F001149034DA847FFF780B900BFB8F24500E6
S214404F1031074000A9AC43009D1440003540400096
S214404F20C1D14300E1224000E5084400991E4000FC
S214404F30ED1A4400190940009D474400091D4000F1
S214404F40D5324400015D440008F345008108400026
S214404F5081214000850840006D254000A126400084
S214404F6004EB471E0EF104056E460FCE0FC596E8BD
S214404F700F0085E80F000121CEF818100F4441F2CB
S214404F800403E75041F28822A358E51841F208008E
S214404F90295403F22241C24844F821000133A35069
S214404FA0FFF733B941F20403E7587F2F0CD941F29B
S214404FB08C23E05800283FF43BA980232522B9499A
S214404FC0B94DA847FFF734B904EB471E0EF1040568
S214404FD06E460FCE0FC596E80F0085E80F002521D8
S214404FE0CEF81810013741F20403E75041F2882208
S214404FF0A358E51841F20800295403F22241AB4871
S21440500044F821000133A350FFF712B941F20403DC
S214405010E7587F2F0CD941F28C23E05800283FF404
S2144050201AA9802368229F499F4DA847FFF713B9C6
S21440503004EB471E0EF104056E460FCE0FC596E8EC
S2144050400F0085E80F006821CEF81810013741F2AE
S2144050500403E75041F28822A358E51841F20800BD
S214405060295403F22241924844F821000133A350C8
S214405070FFF7F1B841F20403E7587F2F0CD941F20D
S2144050808C23E05800283FF4F9A880230222854963
S214405090854DA847FFF7F2B804EB471E0EF104050E
S2144050A06E460FCE0FC596E80F0085E80F0002212A
S2144050B0CEF81810013741F20403E75041F2882237
S2144050C0A358E51841F20800295403F222417948D2
S2144050D044F821000133A350FFF7D0B841F204034F
S2144050E0E7587F2F0CD941F28C23E05800283FF434
S2144050F0E1A880236C226B496B4DA847FFF7DAB8CE
S21440510004EB471E0EF104056E460FCE0FC596E81B
S2144051100F0085E80F006C21CEF81810013741F2D9
S2144051200403E75041F28822A358E51841F20800EC
S214405130295403F22241604844F821000133A35029
S214405140FFF7B8B841F20403E7587F2F0CD941F275
S2144051508C23E05800283FF4C0A880231A465149C3
S214405160514DA847FFF7B9B804EB471E0EF10405AA
S2144051706E460FCE0FC596E80F0085E80F008021DB
S214405180CEF81810013741F20403E75041F2882266
S214405190A358E51841F20800295403F22241474833
S2144051A044F821000133A350FFF797B841F20403B7
S2144051B0E7587F2F0CD941F28C23E05800283FF463
S2144051C09FA8802305223749374DA847FFF798B850
S2144051D004EB471E0EF104056E460FCE0FC596E84B
S2144051E00F0085E80F000521CEF81810013741F270
S2144051F00403E75041F28822A358E51841F208001C
S214405200295403F222412E4844F821000133A3508A
S214405210FFF776B841F20403E7587F2F0CD941F2E6
S2144052208C23E05800283FF47EA8802304221D49A2
S2144052301D4DA847FFF777B804EB471E0EF104054F
S2144052406E460FCE0FC596E80F0085E80F00042186
S214405250CEF81810013741F20403E75041F2882295
S214405260A358E51841F20800295403F22241154894
S21440527044F821000133A350FFF755B841F2040328
S214405280E7587F2F20D941F28C23E05800283FF47E
S2144052905DA8802306220349034DA847FFF756B86A
S2144052A0112A400008F345003107400089084000B5
S2144052B08D0840002D20400091084000891640008F
S2144052C0E50A40003D2E400004EB471E0EF1040563
S2144052D06E460FCE0FC596E80F0085E80F000621F4
S2144052E0CEF81810013741F20403E75041F2882205
S2144052F0A358E51841F20800295403F22241B54864
S21440530044F821000133A350FFF720B82368DB6937
S214405310B1492046984758B141F28C23E0580028BE
S2144053203FF426A8AC4AAD49AD4B9847FFF720B8A6
S21440533041F20403E7587A1CE25004EB47173E1D3F
S2144053400FCD0FC695E80F0086E80F002023BB61FF
S214405350A14BFB61FFF70CB841F20403E7587F2FDF
S2144053600CD941F28C23E05800283FF446A880230D
S2144053706F229C499A4DA847FFF73FB804EB471E5B
S2144053800EF104056E460FCE0FC596E80F0085E871
S2144053900F006F21CEF81810013741F20403E75092
S2144053A041F28822A358E51841F20800295403F236
S2144053B022418D4844F821000133A350FFF71DB821
S2144053C041F20403E7587F2F0CD941F28C23E05872
S2144053D000283FF425A8802347228249804DA847CD
S2144053E0FFF71EB804EB471E0EF104056E460FCEBF
S2144053F00FC596E80F0085E80F004721CEF8181035
S214405400013741F20403E75041F28822A358E518D9
S21440541041F20800295403F22241744844F821001E
S2144054200133A350FEF7FCBF2368DB6901462046E4
S214405430984758B141F28C23E05800283FF406A81C
S2144054402A466649664B9847FFF700B841F2040281
S214405450A358591CA15004EB431E0EF104070FCE6F
S2144054600FC796E80F0087E80F002023CEF81830C5
S214405470CEF81C50FEF7EABF41F20403E7587F2FF0
S2144054800CD941F28C23E05800283EF4F2AF80233A
S21440549046225449524DA847FEF7EBBF04EB471E41
S2144054A00EF104056E460FCE0FC596E80F0085E850
S2144054B00F004621CEF81810013741F20403E7509A
S2144054C041F28822A358E51841F20800295403F215
S2144054D02241474844F821000133A350FEF7C9BF94
S2144054E041F20403E7587F2F0CD941F28C23E05851
S2144054F000283EF4D1AF802308223A49384DA847C9
S214405500FEF7CABF04EB471E0EF104056E460FCEEB
S2144055100FC596E80F0085E80F000821CEF8181052
S214405520013741F20403E75041F28822A358E518B8
S21440553041F20800295403F222412E4844F8210043
S2144055400133A350FEF7A8BF41F20403E7587F2F6C
S2144055500CD941F28C23E05800283EF4B0AF8023AB
S2144055605A2220491E4DA847FEF7A9BF04EB471E06
S2144055700EF104056E460FCE0FC596E80F0085E87F
S2144055800F005A21CEF81810013741F20403E750B5
S21440559041F28822A358E51841F20800295403F244
S2144055A02241154844F821000133A350FEF787BF37
S2144055B041F20403E7587F2F20D941F28C23E0586C
S2144055C000283EF48FAF80235F220649044DA8474B
S2144055D0FEF788BF950840004CF34500B0F3450001
S2144055E03107400008F34500990840009D084000F8
S2144055F0A1084000A5084000A908400004EB471E4B
S2144056000EF104056E460FCE0FC596E80F0085E8EE
S2144056100F005F21CEF81810013741F20403E7501F
S21440562041F28822A358E51841F20800295403F2B3
S2144056302241C24844F821000133A350FEF752BF2E
S21440564041F20403E7587F2F0CD941F28C23E058EF
S21440565000283EF463AF80233D22B949B94DA847A0
S214405660FEF75CBF04EB471E0EF104056E460FCEF8
S2144056700FC596E80F0085E80F003D21CEF81810BC
S214405680013741F20403E75041F28822A358E51857
S21440569041F20800295403F22241AB4844F8210065
S2144056A00133A350FEF73ABF41F20403E7587F2F79
S2144056B00CD941F28C23E05800283EF442AF8023B8
S2144056C03E229F499F4DA847FEF73BBF04EB471E2F
S2144056D00EF104056E460FCE0FC596E80F0085E81E
S2144056E00F003E21CEF81810013741F20403E75070
S2144056F041F28822A358E51841F20800295403F2E3
S2144057002241924844F821000133A350FEF719BFC6
S21440571041F20403E7587F2F0CD941F28C23E0581E
S21440572000283EF421AF802375228549854DA84741
S214405730FEF71ABF04EB471E0EF104056E460FCE69
S2144057400FC596E80F0085E80F007521CEF81810B3
S214405750013741F20403E75041F28822A358E51886
S21440576041F20800295403F22241794844F82100C6
S2144057700133A350FEF7F8BE41F20403E7587F2FEB
S2144057800CD941F28C23E05800283EF400AF802329
S2144057900B226B496B4DA847FEF7F9BE04EB471E3C
S2144057A00EF104056E460FCE0FC596E80F0085E84D
S2144057B00F000B21CEF81810013741F20403E750D2
S2144057C041F28822A358E51841F20800295403F212
S2144057D02241604844F821000133A350FEF7D7BE6B
S2144057E041F20403E7587F2F0CD941F28C23E0584E
S2144057F000283EF4DFAE80230C225149514DA84785
S214405800FEF7D8BE04EB471E0EF104056E460FCEDB
S2144058100FC596E80F0085E80F000C21CEF818104B
S214405820013741F20403E75041F28822A358E518B5
S21440583041F20800295403F22241474844F8210027
S2144058400133A350FEF7B6BE41F20403E7587F2F5C
S2144058500CD941F28C23E05800283EF4BEAE80239B
S21440586062223749374DA847FEF7B7BE04EB471EBE
S2144058700EF104056E460FCE0FC596E80F0085E87C
S2144058800F006221CEF81810013741F20403E750AA
S21440589041F28822A358E51841F20800295403F241
S2144058A022412E4844F821000133A350FEF795BE0E
S2144058B041F20403E7587F2F0CD941F28C23E0587D
